:04000000FDEF00F020
:100008001D820F010551D8B40CEF00F00EEF00F07F
:1000180079EF00F022EF00F00591FBEF00F0059377
:10002800FBEF00F00595FBEF00F00597FBEF00F004
:100038000599FBEF00F0059BFBEF00F00D51176EE3
:10004800186A1850000AD8B42CEF00F047EF00F0F7
:100058001750010AD8B410EF00F0030AD8B413EF10
:1000680000F0060AD8B416EF00F00C0AD8B419EF5D
:1000780000F0180AD8B41CEF00F0300AD8B41FEF0B
:1000880000F047EF00F005A14CEF00F04EEF00F054
:100098004FEF00F0059105A354EF00F056EF00F084
:1000A80057EF00F0059305A55CEF00F05EEF00F058
:1000B8005FEF00F0059505A764EF00F066EF00F02C
:1000C80067EF00F0059705A96CEF00F06EEF00F000
:1000D8006FEF00F0059905AB74EF00F076EF00F0D4
:1000E80077EF00F0059B000E056F2251D8B47FEF23
:1000F80000F081EF00F0BFEF00F08CEF00F02291EC
:10010800FBEF00F02293FBEF00F02295FBEF00F0ED
:100118002251176E186A1850000AD8B496EF00F0EA
:10012800A5EF00F01750010AD8B483EF00F0030AD6
:10013800D8B486EF00F0060AD8B489EF00F0A5EF2E
:1001480000F022A1AAEF00F0ACEF00F0ADEF00F054
:10015800229122A3B2EF00F0B4EF00F0B5EF00F067
:10016800229322A5BAEF00F0BCEF00F0BDEF00F03B
:100178002295000E226F1551D8B4C5EF00F0C7EFD5
:1001880000F0FBEF00F0D1EF00F01591FBEF00F06D
:100198001593E6EC01F0FBEF00F01551176E186AA5
:1001A8001850000AD8B4DBEF00F0E6EF00F0175063
:1001B800010AD8B4C9EF00F0030AD8B4CCEF00F0B4
:1001C800E6EF00F015A1EBEF00F0EDEF00F0EEEF39
:1001D80000F0159115A3F3EF00F0F5EF00F0F8EF3C
:1001E80000F01593E6EC01F0000E0F01156F1D925B
:1001F8001100F0EF01F0000E866E0F0E856E000EF6
:10020800826E000E836E000E846E070E8B6E8768FA
:1002180088688968F00E8A6EF00E0F01216FFC0E57
:100228001C6F1469000E296FC00E0C6F000E206F32
:10023800000E286F000E136F000E0B6F000E1B6F61
:10024800000E276F000E0A6F000E126F000E1A6F55
:10025800000E1F6F0969116919691E69070E266F5B
:100268000869106918691D690F0E256F05910593B6
:10027800059505970599059B0681068306850687DA
:100288000689068B07810783078507870789078BF8
:10029800159115931681168317811783229122933E
:1002A8002295238123832385248124832485000E9A
:1002B800196E000E1A6E30EC02F0000E196E000E68
:1002C8001A6E2BEC02F0000E196E000E1A6E26EC58
:1002D80002F0000E196E000E1A6E21EC02F0000EEC
:1002E800196E000E1A6E1CEC02F0000E196E000E4C
:1002F8001A6E17EC02F0000E196E000E1A6E12EC50
:1003080002F0000E196E000E1A6E0DEC02F0000ECF
:10031800196E000E1A6E08EC02F0000E196E000E2F
:100328001A6E03EC02F0000E196E000E1A6EFEEC47
:1003380001F01200F7EC01F039EC02F035EC02F0B4
:100348008F9200F000F000F000F08F8200F000F0D3
:1003580000F000F08F92090E1C6E1E0E1B6EE40E4C
:10036800E82EFED71B2EFCD71C2EFAD700D08F8282
:10037800090E1C6E1E0E1B6EE40EE82EFED71B2EF9
:10038800FCD71C2EFAD700D0A4EF01F0FDEF00F047
:10039800000E0E01DC6F000EDD6F000EDE6F000E2A
:1003A800DF6F000EE06F000EE16F1200600E0E01AD
:1003B800D36F000ED56F000ED76F080ED96F000EE1
:1003C800D86F12008FA4EBEF01F0EEEF01F08F84ED
:1003D800EFEF01F08F9412001D901D92000EF86E41
:1003E80000019EEF01F0CCEC01F0FFEC00F0DAEC3C
:1003F80001F0120019C001F01AC002F0120019C071
:1004080003F01AC004F0120019C005F01AC006F073
:10041800120019C007F01AC008F0120019C009F03C
:100428001AC00AF0120019C00BF01AC00CF0120022
:1004380019C00DF01AC00EF0120019C00FF01AC042
:1004480010F0120019C011F01AC012F0120019C0F1
:1004580013F01AC014F0120019C015F01AC016F0E3
:100468001200F29AF28EF28C12000E01BD8912006F
:020000040020DA
:10000000FFFFFFFFFFFFFFFFFFFFFFFFFFFFFFFF00
:10001000FFFFFFFFFFFFFFFFFFFFFFFFFFFFFFFFF0
:10002000FFFFFFFFFFFFFFFFFFFFFFFFFFFFFFFFE0
:10003000FFFFFFFFFFFFFFFFFFFFFFFFFFFFFFFFD0
:10004000FFFFFFFFFFFFFFFFFFFFFFFFFFFFFFFFC0
:10005000FFFFFFFFFFFFFFFFFFFFFFFFFFFFFFFFB0
:10006000FFFFFFFFFFFFFFFFFFFFFFFFFFFFFFFFA0
:10007000FFFFFFFFFFFFFFFFFFFFFFFFFFFFFFFF90
:10008000FFFFFFFFFFFFFFFFFFFFFFFFFFFFFFFF80
:10009000FFFFFFFFFFFFFFFFFFFFFFFFFFFFFFFF70
:1000A000FFFFFFFFFFFFFFFFFFFFFFFFFFFFFFFF60
:1000B000FFFFFFFFFFFFFFFFFFFFFFFFFFFFFFFF50
:1000C000FFFFFFFFFFFFFFFFFFFFFFFFFFFFFFFF40
:1000D000FFFFFFFFFFFFFFFFFFFFFFFFFFFFFFFF30
:1000E000FFFFFFFFFFFFFFFFFFFFFFFFFFFFFFFF20
:1000F000FFFFFFFFFFFFFFFFFFFFFFFFFFFFFFFF10
:020000040030CA
:0C0000008CFFFFFF9FFFFFFFFFFFFFFFD3
:00000001FF
